{
    "contractName": "MintNft",
    "abi": [
        {
            "inputs": [
                {
                    "internalType": "string",
                    "name": "baseURI",
                    "type": "string"
                },
                {
                    "internalType": "address",
                    "name": "_whitelistContract",
                    "type": "address"
                }
            ],
            "stateMutability": "nonpayable",
            "type": "constructor"
        },
        {
            "anonymous": false,
            "inputs": [
                {
                    "indexed": true,
                    "internalType": "address",
                    "name": "owner",
                    "type": "address"
                },
                {
                    "indexed": true,
                    "internalType": "address",
                    "name": "approved",
                    "type": "address"
                },
                {
                    "indexed": true,
                    "internalType": "uint256",
                    "name": "tokenId",
                    "type": "uint256"
                }
            ],
            "name": "Approval",
            "type": "event"
        },
        {
            "anonymous": false,
            "inputs": [
                {
                    "indexed": true,
                    "internalType": "address",
                    "name": "owner",
                    "type": "address"
                },
                {
                    "indexed": true,
                    "internalType": "address",
                    "name": "operator",
                    "type": "address"
                },
                {
                    "indexed": false,
                    "internalType": "bool",
                    "name": "approved",
                    "type": "bool"
                }
            ],
            "name": "ApprovalForAll",
            "type": "event"
        },
        {
            "anonymous": false,
            "inputs": [
                {
                    "indexed": true,
                    "internalType": "address",
                    "name": "previousOwner",
                    "type": "address"
                },
                {
                    "indexed": true,
                    "internalType": "address",
                    "name": "newOwner",
                    "type": "address"
                }
            ],
            "name": "OwnershipTransferred",
            "type": "event"
        },
        {
            "anonymous": false,
            "inputs": [
                {
                    "indexed": true,
                    "internalType": "address",
                    "name": "from",
                    "type": "address"
                },
                {
                    "indexed": true,
                    "internalType": "address",
                    "name": "to",
                    "type": "address"
                },
                {
                    "indexed": true,
                    "internalType": "uint256",
                    "name": "tokenId",
                    "type": "uint256"
                }
            ],
            "name": "Transfer",
            "type": "event"
        },
        {
            "stateMutability": "payable",
            "type": "fallback"
        },
        {
            "inputs": [],
            "name": "_paused",
            "outputs": [
                {
                    "internalType": "bool",
                    "name": "",
                    "type": "bool"
                }
            ],
            "stateMutability": "view",
            "type": "function"
        },
        {
            "inputs": [],
            "name": "_price",
            "outputs": [
                {
                    "internalType": "uint256",
                    "name": "",
                    "type": "uint256"
                }
            ],
            "stateMutability": "view",
            "type": "function"
        },
        {
            "inputs": [
                {
                    "internalType": "address",
                    "name": "to",
                    "type": "address"
                },
                {
                    "internalType": "uint256",
                    "name": "tokenId",
                    "type": "uint256"
                }
            ],
            "name": "approve",
            "outputs": [],
            "stateMutability": "nonpayable",
            "type": "function"
        },
        {
            "inputs": [
                {
                    "internalType": "address",
                    "name": "owner",
                    "type": "address"
                }
            ],
            "name": "balanceOf",
            "outputs": [
                {
                    "internalType": "uint256",
                    "name": "",
                    "type": "uint256"
                }
            ],
            "stateMutability": "view",
            "type": "function"
        },
        {
            "inputs": [
                {
                    "internalType": "uint256",
                    "name": "tokenId",
                    "type": "uint256"
                }
            ],
            "name": "getApproved",
            "outputs": [
                {
                    "internalType": "address",
                    "name": "",
                    "type": "address"
                }
            ],
            "stateMutability": "view",
            "type": "function"
        },
        {
            "inputs": [
                {
                    "internalType": "address",
                    "name": "owner",
                    "type": "address"
                },
                {
                    "internalType": "address",
                    "name": "operator",
                    "type": "address"
                }
            ],
            "name": "isApprovedForAll",
            "outputs": [
                {
                    "internalType": "bool",
                    "name": "",
                    "type": "bool"
                }
            ],
            "stateMutability": "view",
            "type": "function"
        },
        {
            "inputs": [],
            "name": "maxTokenIds",
            "outputs": [
                {
                    "internalType": "uint256",
                    "name": "",
                    "type": "uint256"
                }
            ],
            "stateMutability": "view",
            "type": "function"
        },
        {
            "inputs": [],
            "name": "mint",
            "outputs": [],
            "stateMutability": "payable",
            "type": "function"
        },
        {
            "inputs": [],
            "name": "name",
            "outputs": [
                {
                    "internalType": "string",
                    "name": "",
                    "type": "string"
                }
            ],
            "stateMutability": "view",
            "type": "function"
        },
        {
            "inputs": [],
            "name": "owner",
            "outputs": [
                {
                    "internalType": "address",
                    "name": "",
                    "type": "address"
                }
            ],
            "stateMutability": "view",
            "type": "function"
        },
        {
            "inputs": [
                {
                    "internalType": "uint256",
                    "name": "tokenId",
                    "type": "uint256"
                }
            ],
            "name": "ownerOf",
            "outputs": [
                {
                    "internalType": "address",
                    "name": "",
                    "type": "address"
                }
            ],
            "stateMutability": "view",
            "type": "function"
        },
        {
            "inputs": [],
            "name": "presaleEnded",
            "outputs": [
                {
                    "internalType": "uint256",
                    "name": "",
                    "type": "uint256"
                }
            ],
            "stateMutability": "view",
            "type": "function"
        },
        {
            "inputs": [],
            "name": "presaleMint",
            "outputs": [],
            "stateMutability": "payable",
            "type": "function"
        },
        {
            "inputs": [],
            "name": "presaleStarted",
            "outputs": [
                {
                    "internalType": "bool",
                    "name": "",
                    "type": "bool"
                }
            ],
            "stateMutability": "view",
            "type": "function"
        },
        {
            "inputs": [],
            "name": "renounceOwnership",
            "outputs": [],
            "stateMutability": "nonpayable",
            "type": "function"
        },
        {
            "inputs": [
                {
                    "internalType": "address",
                    "name": "from",
                    "type": "address"
                },
                {
                    "internalType": "address",
                    "name": "to",
                    "type": "address"
                },
                {
                    "internalType": "uint256",
                    "name": "tokenId",
                    "type": "uint256"
                }
            ],
            "name": "safeTransferFrom",
            "outputs": [],
            "stateMutability": "nonpayable",
            "type": "function"
        },
        {
            "inputs": [
                {
                    "internalType": "address",
                    "name": "from",
                    "type": "address"
                },
                {
                    "internalType": "address",
                    "name": "to",
                    "type": "address"
                },
                {
                    "internalType": "uint256",
                    "name": "tokenId",
                    "type": "uint256"
                },
                {
                    "internalType": "bytes",
                    "name": "_data",
                    "type": "bytes"
                }
            ],
            "name": "safeTransferFrom",
            "outputs": [],
            "stateMutability": "nonpayable",
            "type": "function"
        },
        {
            "inputs": [
                {
                    "internalType": "address",
                    "name": "operator",
                    "type": "address"
                },
                {
                    "internalType": "bool",
                    "name": "approved",
                    "type": "bool"
                }
            ],
            "name": "setApprovalForAll",
            "outputs": [],
            "stateMutability": "nonpayable",
            "type": "function"
        },
        {
            "inputs": [
                {
                    "internalType": "bool",
                    "name": "value",
                    "type": "bool"
                }
            ],
            "name": "setPaused",
            "outputs": [],
            "stateMutability": "nonpayable",
            "type": "function"
        },
        {
            "inputs": [],
            "name": "startPresale",
            "outputs": [],
            "stateMutability": "nonpayable",
            "type": "function"
        },
        {
            "inputs": [
                {
                    "internalType": "bytes4",
                    "name": "interfaceId",
                    "type": "bytes4"
                }
            ],
            "name": "supportsInterface",
            "outputs": [
                {
                    "internalType": "bool",
                    "name": "",
                    "type": "bool"
                }
            ],
            "stateMutability": "view",
            "type": "function"
        },
        {
            "inputs": [],
            "name": "symbol",
            "outputs": [
                {
                    "internalType": "string",
                    "name": "",
                    "type": "string"
                }
            ],
            "stateMutability": "view",
            "type": "function"
        },
        {
            "inputs": [
                {
                    "internalType": "uint256",
                    "name": "index",
                    "type": "uint256"
                }
            ],
            "name": "tokenByIndex",
            "outputs": [
                {
                    "internalType": "uint256",
                    "name": "",
                    "type": "uint256"
                }
            ],
            "stateMutability": "view",
            "type": "function"
        },
        {
            "inputs": [],
            "name": "tokenIds",
            "outputs": [
                {
                    "internalType": "uint256",
                    "name": "",
                    "type": "uint256"
                }
            ],
            "stateMutability": "view",
            "type": "function"
        },
        {
            "inputs": [
                {
                    "internalType": "address",
                    "name": "owner",
                    "type": "address"
                },
                {
                    "internalType": "uint256",
                    "name": "index",
                    "type": "uint256"
                }
            ],
            "name": "tokenOfOwnerByIndex",
            "outputs": [
                {
                    "internalType": "uint256",
                    "name": "",
                    "type": "uint256"
                }
            ],
            "stateMutability": "view",
            "type": "function"
        },
        {
            "inputs": [
                {
                    "internalType": "uint256",
                    "name": "tokenId",
                    "type": "uint256"
                }
            ],
            "name": "tokenURI",
            "outputs": [
                {
                    "internalType": "string",
                    "name": "",
                    "type": "string"
                }
            ],
            "stateMutability": "view",
            "type": "function"
        },
        {
            "inputs": [],
            "name": "totalSupply",
            "outputs": [
                {
                    "internalType": "uint256",
                    "name": "",
                    "type": "uint256"
                }
            ],
            "stateMutability": "view",
            "type": "function"
        },
        {
            "inputs": [
                {
                    "internalType": "address",
                    "name": "from",
                    "type": "address"
                },
                {
                    "internalType": "address",
                    "name": "to",
                    "type": "address"
                },
                {
                    "internalType": "uint256",
                    "name": "tokenId",
                    "type": "uint256"
                }
            ],
            "name": "transferFrom",
            "outputs": [],
            "stateMutability": "nonpayable",
            "type": "function"
        },
        {
            "inputs": [
                {
                    "internalType": "address",
                    "name": "newOwner",
                    "type": "address"
                }
            ],
            "name": "transferOwnership",
            "outputs": [],
            "stateMutability": "nonpayable",
            "type": "function"
        },
        {
            "inputs": [],
            "name": "withdraw",
            "outputs": [],
            "stateMutability": "nonpayable",
            "type": "function"
        },
        {
            "stateMutability": "payable",
            "type": "receive"
        }
    ],
    "bytecode": "6080604052671bc16d674ec80000600c55612710600e553480156200002357600080fd5b50604051620025363803806200253683398101604081905262000046916200023a565b60408051808201825260128152712525a61027232a1031b7b63632b1ba34b7b760711b6020808301918252835180850190945260038452621292d360ea1b9084015281519192916200009b9160009162000161565b508051620000b190600190602084019062000161565b505050620000ce620000c86200010b60201b60201c565b6200010f565b8151620000e390600b90602085019062000161565b50601080546001600160a01b0319166001600160a01b03929092169190911790555062000368565b3390565b600a80546001600160a01b038381166001600160a01b0319831681179093556040519116919082907f8be0079c531659141344cd1fd0a4f28419497f9722a3daafe3b4186f6b6457e090600090a35050565b8280546200016f906200032b565b90600052602060002090601f016020900481019282620001935760008555620001de565b82601f10620001ae57805160ff1916838001178555620001de565b82800160010185558215620001de579182015b82811115620001de578251825591602001919060010190620001c1565b50620001ec929150620001f0565b5090565b5b80821115620001ec5760008155600101620001f1565b634e487b7160e01b600052604160045260246000fd5b80516001600160a01b03811681146200023557600080fd5b919050565b600080604083850312156200024e57600080fd5b82516001600160401b03808211156200026657600080fd5b818501915085601f8301126200027b57600080fd5b81518181111562000290576200029062000207565b604051601f8201601f19908116603f01168101908382118183101715620002bb57620002bb62000207565b81604052828152602093508884848701011115620002d857600080fd5b600091505b82821015620002fc5784820184015181830185015290830190620002dd565b828211156200030e5760008484830101525b9550620003209150508582016200021d565b925050509250929050565b600181811c908216806200034057607f821691505b602082108114156200036257634e487b7160e01b600052602260045260246000fd5b50919050565b6121be80620003786000396000f3fe6080604052600436106101b95760003560e01c80634f6ccce7116100eb5780638da5cb5b1161008f578063c87b56dd11610061578063c87b56dd146104af578063e580b2b0146104cf578063e985e9c5146104e5578063f2fde38b1461052e57005b80638da5cb5b1461043c57806395d89b411461045a578063a22cb4651461046f578063b88d4fde1461048f57005b80636352211e116100c85780636352211e146103d157806370a08231146103f1578063714cff5614610411578063715018a61461042757005b80634f6ccce71461039357806359533d6c146103b35780635f769621146103bb57005b806316c38b3c1161015d57806323b872dd1161012f57806323b872dd1461031e5780632f745c591461033e5780633ccfd60b1461035e57806342842e0e1461037357005b806316c38b3c146102af57806316c61ccc146102cf57806318160ddd146102e9578063235b6ea11461030857005b806306fdde031161019657806306fdde031461022d578063081812fc1461024f578063095ea7b3146102875780631249c58b146102a757005b806301ffc9a7146101c257806304549d6f146101f757806304c98b2b1461021857005b366101c057005b005b3480156101ce57600080fd5b506101e26101dd366004611c40565b61054e565b60405190151581526020015b60405180910390f35b34801561020357600080fd5b506010546101e290600160a01b900460ff1681565b34801561022457600080fd5b506101c0610579565b34801561023957600080fd5b506102426105d1565b6040516101ee9190611cb5565b34801561025b57600080fd5b5061026f61026a366004611cc8565b610663565b6040516001600160a01b0390911681526020016101ee565b34801561029357600080fd5b506101c06102a2366004611cfd565b6106f8565b6101c061080e565b3480156102bb57600080fd5b506101c06102ca366004611d35565b6109ba565b3480156102db57600080fd5b50600d546101e29060ff1681565b3480156102f557600080fd5b506008545b6040519081526020016101ee565b34801561031457600080fd5b506102fa600c5481565b34801561032a57600080fd5b506101c0610339366004611d52565b6109f7565b34801561034a57600080fd5b506102fa610359366004611cfd565b610a28565b34801561036a57600080fd5b506101c0610abe565b34801561037f57600080fd5b506101c061038e366004611d52565b610b99565b34801561039f57600080fd5b506102fa6103ae366004611cc8565b610bb4565b6101c0610c47565b3480156103c757600080fd5b506102fa600e5481565b3480156103dd57600080fd5b5061026f6103ec366004611cc8565b610e8a565b3480156103fd57600080fd5b506102fa61040c366004611d8e565b610f01565b34801561041d57600080fd5b506102fa600f5481565b34801561043357600080fd5b506101c0610f88565b34801561044857600080fd5b50600a546001600160a01b031661026f565b34801561046657600080fd5b50610242610fbc565b34801561047b57600080fd5b506101c061048a366004611da9565b610fcb565b34801561049b57600080fd5b506101c06104aa366004611df6565b610fda565b3480156104bb57600080fd5b506102426104ca366004611cc8565b611012565b3480156104db57600080fd5b506102fa60115481565b3480156104f157600080fd5b506101e2610500366004611ed2565b6001600160a01b03918216600090815260056020908152604080832093909416825291909152205460ff1690565b34801561053a57600080fd5b506101c0610549366004611d8e565b6110ed565b60006001600160e01b0319821663780e9d6360e01b1480610573575061057382611188565b92915050565b600a546001600160a01b031633146105ac5760405162461bcd60e51b81526004016105a390611f05565b60405180910390fd5b6010805460ff60a01b1916600160a01b1790556105cc426202a300611f50565b601155565b6060600080546105e090611f68565b80601f016020809104026020016040519081016040528092919081815260200182805461060c90611f68565b80156106595780601f1061062e57610100808354040283529160200191610659565b820191906000526020600020905b81548152906001019060200180831161063c57829003601f168201915b5050505050905090565b6000818152600260205260408120546001600160a01b03166106dc5760405162461bcd60e51b815260206004820152602c60248201527f4552433732313a20617070726f76656420717565727920666f72206e6f6e657860448201526b34b9ba32b73a103a37b5b2b760a11b60648201526084016105a3565b506000908152600460205260409020546001600160a01b031690565b600061070382610e8a565b9050806001600160a01b0316836001600160a01b031614156107715760405162461bcd60e51b815260206004820152602160248201527f4552433732313a20617070726f76616c20746f2063757272656e74206f776e656044820152603960f91b60648201526084016105a3565b336001600160a01b038216148061078d575061078d8133610500565b6107ff5760405162461bcd60e51b815260206004820152603860248201527f4552433732313a20617070726f76652063616c6c6572206973206e6f74206f7760448201527f6e6572206e6f7220617070726f76656420666f7220616c6c000000000000000060648201526084016105a3565b61080983836111d8565b505050565b600d5460ff16156108615760405162461bcd60e51b815260206004820152601e60248201527f54686520636f6e74726163742069732070617573656420666f72206e6f77000060448201526064016105a3565b601054600160a01b900460ff16801561087c57506011544210155b6108c85760405162461bcd60e51b815260206004820152601960248201527f50726573616c6520686173206e6f7420656e646564207965740000000000000060448201526064016105a3565b600e54600f54106109415760405162461bcd60e51b815260206004820152603a60248201527f4578636565646564204d617820737570706c79206f66206f757220636f6c6c6560448201527f6374696f6e2c205765206675636b696e672072696368206e6f7700000000000060648201526084016105a3565b600c5434116109925760405162461bcd60e51b815260206004820152601760248201527f596f7520706f6f7220746f20627579206f7572204e465400000000000000000060448201526064016105a3565b6001600f60008282546109a59190611f50565b925050819055506109b833600f54611246565b565b600a546001600160a01b031633146109e45760405162461bcd60e51b81526004016105a390611f05565b600d805460ff1916911515919091179055565b610a013382611260565b610a1d5760405162461bcd60e51b81526004016105a390611fa3565b610809838383611357565b6000610a3383610f01565b8210610a955760405162461bcd60e51b815260206004820152602b60248201527f455243373231456e756d657261626c653a206f776e657220696e646578206f7560448201526a74206f6620626f756e647360a81b60648201526084016105a3565b506001600160a01b03919091166000908152600660209081526040808320938352929052205490565b600a546001600160a01b03163314610ae85760405162461bcd60e51b81526004016105a390611f05565b6000610afc600a546001600160a01b031690565b60405190915047906000906001600160a01b0384169083908381818185875af1925050503d8060008114610b4c576040519150601f19603f3d011682016040523d82523d6000602084013e610b51565b606091505b50509050806108095760405162461bcd60e51b81526020600482015260146024820152732330b4b632b2103a379039b2b7321022ba3432b960611b60448201526064016105a3565b61080983838360405180602001604052806000815250610fda565b6000610bbf60085490565b8210610c225760405162461bcd60e51b815260206004820152602c60248201527f455243373231456e756d657261626c653a20676c6f62616c20696e646578206f60448201526b7574206f6620626f756e647360a01b60648201526084016105a3565b60088281548110610c3557610c35611ff4565b90600052602060002001549050919050565b600d5460ff1615610c9a5760405162461bcd60e51b815260206004820152601e60248201527f54686520636f6e74726163742069732070617573656420666f72206e6f77000060448201526064016105a3565b601054600160a01b900460ff168015610cb4575060115442105b610cf95760405162461bcd60e51b815260206004820152601660248201527550726573616c65206973206e6f742072756e6e696e6760501b60448201526064016105a3565b601054604051636c73b9d160e11b81523360048201526001600160a01b039091169063d8e773a290602401602060405180830381865afa158015610d41573d6000803e3d6000fd5b505050506040513d601f19601f82011682018060405250810190610d65919061200a565b610daa5760405162461bcd60e51b8152602060048201526016602482015275165bdd48185c99481b9bdd081dda1a5d195b1a5cd95960521b60448201526064016105a3565b600e54600f5410610dfd5760405162461bcd60e51b815260206004820152601760248201527f4578636565646564206d6178696d756d20737570706c7900000000000000000060448201526064016105a3565b600c543411610e685760405162461bcd60e51b815260206004820152603160248201527f596f752061726520706f6f722e20596f752063616e2774206166666f7264206f6044820152703ab91027232a1031b7b63632b1ba34b7b760791b60648201526084016105a3565b670de0b6b3a7640000600c819055506001600f60008282546109a59190611f50565b6000818152600260205260408120546001600160a01b0316806105735760405162461bcd60e51b815260206004820152602960248201527f4552433732313a206f776e657220717565727920666f72206e6f6e657869737460448201526832b73a103a37b5b2b760b91b60648201526084016105a3565b60006001600160a01b038216610f6c5760405162461bcd60e51b815260206004820152602a60248201527f4552433732313a2062616c616e636520717565727920666f7220746865207a65604482015269726f206164647265737360b01b60648201526084016105a3565b506001600160a01b031660009081526003602052604090205490565b600a546001600160a01b03163314610fb25760405162461bcd60e51b81526004016105a390611f05565b6109b86000611502565b6060600180546105e090611f68565b610fd6338383611554565b5050565b610fe43383611260565b6110005760405162461bcd60e51b81526004016105a390611fa3565b61100c84848484611623565b50505050565b6000818152600260205260409020546060906001600160a01b03166110915760405162461bcd60e51b815260206004820152602f60248201527f4552433732314d657461646174613a2055524920717565727920666f72206e6f60448201526e3732bc34b9ba32b73a103a37b5b2b760891b60648201526084016105a3565b600061109b611656565b905060008151116110bb57604051806020016040528060008152506110e6565b806110c584611665565b6040516020016110d6929190612027565b6040516020818303038152906040525b9392505050565b600a546001600160a01b031633146111175760405162461bcd60e51b81526004016105a390611f05565b6001600160a01b03811661117c5760405162461bcd60e51b815260206004820152602660248201527f4f776e61626c653a206e6577206f776e657220697320746865207a65726f206160448201526564647265737360d01b60648201526084016105a3565b61118581611502565b50565b60006001600160e01b031982166380ac58cd60e01b14806111b957506001600160e01b03198216635b5e139f60e01b145b8061057357506301ffc9a760e01b6001600160e01b0319831614610573565b600081815260046020526040902080546001600160a01b0319166001600160a01b038416908117909155819061120d82610e8a565b6001600160a01b03167f8c5be1e5ebec7d5bd14f71427d1e84f3dd0314c0f7b2291e5b200ac8c7c3b92560405160405180910390a45050565b610fd6828260405180602001604052806000815250611763565b6000818152600260205260408120546001600160a01b03166112d95760405162461bcd60e51b815260206004820152602c60248201527f4552433732313a206f70657261746f7220717565727920666f72206e6f6e657860448201526b34b9ba32b73a103a37b5b2b760a11b60648201526084016105a3565b60006112e483610e8a565b9050806001600160a01b0316846001600160a01b0316148061131f5750836001600160a01b031661131484610663565b6001600160a01b0316145b8061134f57506001600160a01b0380821660009081526005602090815260408083209388168352929052205460ff165b949350505050565b826001600160a01b031661136a82610e8a565b6001600160a01b0316146113d25760405162461bcd60e51b815260206004820152602960248201527f4552433732313a207472616e73666572206f6620746f6b656e2074686174206960448201526839903737ba1037bbb760b91b60648201526084016105a3565b6001600160a01b0382166114345760405162461bcd60e51b8152602060048201526024808201527f4552433732313a207472616e7366657220746f20746865207a65726f206164646044820152637265737360e01b60648201526084016105a3565b61143f838383611796565b61144a6000826111d8565b6001600160a01b0383166000908152600360205260408120805460019290611473908490612056565b90915550506001600160a01b03821660009081526003602052604081208054600192906114a1908490611f50565b909155505060008181526002602052604080822080546001600160a01b0319166001600160a01b0386811691821790925591518493918716917fddf252ad1be2c89b69c2b068fc378daa952ba7f163c4a11628f55a4df523b3ef91a4505050565b600a80546001600160a01b038381166001600160a01b0319831681179093556040519116919082907f8be0079c531659141344cd1fd0a4f28419497f9722a3daafe3b4186f6b6457e090600090a35050565b816001600160a01b0316836001600160a01b031614156115b65760405162461bcd60e51b815260206004820152601960248201527f4552433732313a20617070726f766520746f2063616c6c65720000000000000060448201526064016105a3565b6001600160a01b03838116600081815260056020908152604080832094871680845294825291829020805460ff191686151590811790915591519182527f17307eab39ab6107e8899845ad3d59bd9653f200f220920489ca2b5937696c31910160405180910390a3505050565b61162e848484611357565b61163a8484848461184e565b61100c5760405162461bcd60e51b81526004016105a39061206d565b6060600b80546105e090611f68565b6060816116895750506040805180820190915260018152600360fc1b602082015290565b8160005b81156116b3578061169d816120bf565b91506116ac9050600a836120f0565b915061168d565b60008167ffffffffffffffff8111156116ce576116ce611de0565b6040519080825280601f01601f1916602001820160405280156116f8576020820181803683370190505b5090505b841561134f5761170d600183612056565b915061171a600a86612104565b611725906030611f50565b60f81b81838151811061173a5761173a611ff4565b60200101906001600160f81b031916908160001a90535061175c600a866120f0565b94506116fc565b61176d838361194c565b61177a600084848461184e565b6108095760405162461bcd60e51b81526004016105a39061206d565b6001600160a01b0383166117f1576117ec81600880546000838152600960205260408120829055600182018355919091527ff3f7a9fe364faab93b216da50a3214154f22a0a2b415b23a84c8169e8b636ee30155565b611814565b816001600160a01b0316836001600160a01b031614611814576118148382611a9a565b6001600160a01b03821661182b5761080981611b37565b826001600160a01b0316826001600160a01b031614610809576108098282611be6565b60006001600160a01b0384163b1561194157604051630a85bd0160e11b81526001600160a01b0385169063150b7a0290611892903390899088908890600401612118565b6020604051808303816000875af19250505080156118cd575060408051601f3d908101601f191682019092526118ca91810190612155565b60015b611927573d8080156118fb576040519150601f19603f3d011682016040523d82523d6000602084013e611900565b606091505b50805161191f5760405162461bcd60e51b81526004016105a39061206d565b805181602001fd5b6001600160e01b031916630a85bd0160e11b14905061134f565b506001949350505050565b6001600160a01b0382166119a25760405162461bcd60e51b815260206004820181905260248201527f4552433732313a206d696e7420746f20746865207a65726f206164647265737360448201526064016105a3565b6000818152600260205260409020546001600160a01b031615611a075760405162461bcd60e51b815260206004820152601c60248201527f4552433732313a20746f6b656e20616c7265616479206d696e7465640000000060448201526064016105a3565b611a1360008383611796565b6001600160a01b0382166000908152600360205260408120805460019290611a3c908490611f50565b909155505060008181526002602052604080822080546001600160a01b0319166001600160a01b03861690811790915590518392907fddf252ad1be2c89b69c2b068fc378daa952ba7f163c4a11628f55a4df523b3ef908290a45050565b60006001611aa784610f01565b611ab19190612056565b600083815260076020526040902054909150808214611b04576001600160a01b03841660009081526006602090815260408083208584528252808320548484528184208190558352600790915290208190555b5060009182526007602090815260408084208490556001600160a01b039094168352600681528383209183525290812055565b600854600090611b4990600190612056565b60008381526009602052604081205460088054939450909284908110611b7157611b71611ff4565b906000526020600020015490508060088381548110611b9257611b92611ff4565b6000918252602080832090910192909255828152600990915260408082208490558582528120556008805480611bca57611bca612172565b6001900381819060005260206000200160009055905550505050565b6000611bf183610f01565b6001600160a01b039093166000908152600660209081526040808320868452825280832085905593825260079052919091209190915550565b6001600160e01b03198116811461118557600080fd5b600060208284031215611c5257600080fd5b81356110e681611c2a565b60005b83811015611c78578181015183820152602001611c60565b8381111561100c5750506000910152565b60008151808452611ca1816020860160208601611c5d565b601f01601f19169290920160200192915050565b6020815260006110e66020830184611c89565b600060208284031215611cda57600080fd5b5035919050565b80356001600160a01b0381168114611cf857600080fd5b919050565b60008060408385031215611d1057600080fd5b611d1983611ce1565b946020939093013593505050565b801515811461118557600080fd5b600060208284031215611d4757600080fd5b81356110e681611d27565b600080600060608486031215611d6757600080fd5b611d7084611ce1565b9250611d7e60208501611ce1565b9150604084013590509250925092565b600060208284031215611da057600080fd5b6110e682611ce1565b60008060408385031215611dbc57600080fd5b611dc583611ce1565b91506020830135611dd581611d27565b809150509250929050565b634e487b7160e01b600052604160045260246000fd5b60008060008060808587031215611e0c57600080fd5b611e1585611ce1565b9350611e2360208601611ce1565b925060408501359150606085013567ffffffffffffffff80821115611e4757600080fd5b818701915087601f830112611e5b57600080fd5b813581811115611e6d57611e6d611de0565b604051601f8201601f19908116603f01168101908382118183101715611e9557611e95611de0565b816040528281528a6020848701011115611eae57600080fd5b82602086016020830137600060208483010152809550505050505092959194509250565b60008060408385031215611ee557600080fd5b611eee83611ce1565b9150611efc60208401611ce1565b90509250929050565b6020808252818101527f4f776e61626c653a2063616c6c6572206973206e6f7420746865206f776e6572604082015260600190565b634e487b7160e01b600052601160045260246000fd5b60008219821115611f6357611f63611f3a565b500190565b600181811c90821680611f7c57607f821691505b60208210811415611f9d57634e487b7160e01b600052602260045260246000fd5b50919050565b60208082526031908201527f4552433732313a207472616e736665722063616c6c6572206973206e6f74206f6040820152701ddb995c881b9bdc88185c1c1c9bdd9959607a1b606082015260800190565b634e487b7160e01b600052603260045260246000fd5b60006020828403121561201c57600080fd5b81516110e681611d27565b60008351612039818460208801611c5d565b83519083019061204d818360208801611c5d565b01949350505050565b60008282101561206857612068611f3a565b500390565b60208082526032908201527f4552433732313a207472616e7366657220746f206e6f6e20455243373231526560408201527131b2b4bb32b91034b6b83632b6b2b73a32b960711b606082015260800190565b60006000198214156120d3576120d3611f3a565b5060010190565b634e487b7160e01b600052601260045260246000fd5b6000826120ff576120ff6120da565b500490565b600082612113576121136120da565b500690565b6001600160a01b038581168252841660208201526040810183905260806060820181905260009061214b90830184611c89565b9695505050505050565b60006020828403121561216757600080fd5b81516110e681611c2a565b634e487b7160e01b600052603160045260246000fdfea26469706673582212207fd4b11126ba5d2180c62a4e924f5069c4fa206190ecfbd4bf6cecff00d9a21464736f6c634300080b0033",
    "sourcePath": "/Users/jigmetashinamgyal/personal/NFT-Verifier/smart_contract/contracts/mint_nft.sol",
    "compiler": {
        "name": "solc",
        "version": "0.8.11+commit.d7f03943"
    },
    "functionHashes": {
        "_paused()": "16c61ccc",
        "_price()": "235b6ea1",
        "approve(address,uint256)": "095ea7b3",
        "balanceOf(address)": "70a08231",
        "getApproved(uint256)": "081812fc",
        "isApprovedForAll(address,address)": "e985e9c5",
        "maxTokenIds()": "5f769621",
        "mint()": "1249c58b",
        "name()": "06fdde03",
        "owner()": "8da5cb5b",
        "ownerOf(uint256)": "6352211e",
        "presaleEnded()": "e580b2b0",
        "presaleMint()": "59533d6c",
        "presaleStarted()": "04549d6f",
        "renounceOwnership()": "715018a6",
        "safeTransferFrom(address,address,uint256)": "42842e0e",
        "safeTransferFrom(address,address,uint256,bytes)": "b88d4fde",
        "setApprovalForAll(address,bool)": "a22cb465",
        "setPaused(bool)": "16c38b3c",
        "startPresale()": "04c98b2b",
        "supportsInterface(bytes4)": "01ffc9a7",
        "symbol()": "95d89b41",
        "tokenByIndex(uint256)": "4f6ccce7",
        "tokenIds()": "714cff56",
        "tokenOfOwnerByIndex(address,uint256)": "2f745c59",
        "tokenURI(uint256)": "c87b56dd",
        "totalSupply()": "18160ddd",
        "transferFrom(address,address,uint256)": "23b872dd",
        "transferOwnership(address)": "f2fde38b",
        "withdraw()": "3ccfd60b"
    },
    "gasEstimates": {
        "creation": {
            "codeDepositCost": "1727600",
            "executionCost": "infinite",
            "totalCost": "infinite"
        },
        "external": {
            "": "186",
            "_paused()": "2367",
            "_price()": "2407",
            "approve(address,uint256)": "infinite",
            "balanceOf(address)": "2656",
            "getApproved(uint256)": "4760",
            "isApprovedForAll(address,address)": "infinite",
            "maxTokenIds()": "2385",
            "mint()": "infinite",
            "name()": "infinite",
            "owner()": "2376",
            "ownerOf(uint256)": "2601",
            "presaleEnded()": "2361",
            "presaleMint()": "infinite",
            "presaleStarted()": "2385",
            "renounceOwnership()": "28228",
            "safeTransferFrom(address,address,uint256)": "infinite",
            "safeTransferFrom(address,address,uint256,bytes)": "infinite",
            "setApprovalForAll(address,bool)": "26804",
            "setPaused(bool)": "26709",
            "startPresale()": "48783",
            "supportsInterface(bytes4)": "infinite",
            "symbol()": "infinite",
            "tokenByIndex(uint256)": "6761",
            "tokenIds()": "2384",
            "tokenOfOwnerByIndex(address,uint256)": "4997",
            "tokenURI(uint256)": "infinite",
            "totalSupply()": "2371",
            "transferFrom(address,address,uint256)": "infinite",
            "transferOwnership(address)": "28422",
            "withdraw()": "infinite"
        },
        "internal": {
            "_baseURI()": "infinite"
        }
    }
}